{
  "contractName": "ECTools",
  "abi": [
    {
      "constant": true,
      "inputs": [
        {
          "name": "_hashedMsg",
          "type": "bytes32"
        },
        {
          "name": "_sig",
          "type": "string"
        }
      ],
      "name": "recoverSigner",
      "outputs": [
        {
          "name": "",
          "type": "address"
        }
      ],
      "payable": false,
      "stateMutability": "pure",
      "type": "function"
    },
    {
      "constant": true,
      "inputs": [
        {
          "name": "_hashedMsg",
          "type": "bytes32"
        },
        {
          "name": "_sig",
          "type": "string"
        },
        {
          "name": "_addr",
          "type": "address"
        }
      ],
      "name": "isSignedBy",
      "outputs": [
        {
          "name": "",
          "type": "bool"
        }
      ],
      "payable": false,
      "stateMutability": "pure",
      "type": "function"
    },
    {
      "constant": true,
      "inputs": [
        {
          "name": "_hexstr",
          "type": "string"
        }
      ],
      "name": "hexstrToBytes",
      "outputs": [
        {
          "name": "",
          "type": "bytes"
        }
      ],
      "payable": false,
      "stateMutability": "pure",
      "type": "function"
    },
    {
      "constant": true,
      "inputs": [
        {
          "name": "_char",
          "type": "string"
        }
      ],
      "name": "parseInt16Char",
      "outputs": [
        {
          "name": "",
          "type": "uint256"
        }
      ],
      "payable": false,
      "stateMutability": "pure",
      "type": "function"
    },
    {
      "constant": true,
      "inputs": [
        {
          "name": "_uint",
          "type": "uint256"
        }
      ],
      "name": "uintToBytes32",
      "outputs": [
        {
          "name": "b",
          "type": "bytes"
        }
      ],
      "payable": false,
      "stateMutability": "pure",
      "type": "function"
    },
    {
      "constant": true,
      "inputs": [
        {
          "name": "_msg",
          "type": "string"
        }
      ],
      "name": "toEthereumSignedMessage",
      "outputs": [
        {
          "name": "",
          "type": "bytes32"
        }
      ],
      "payable": false,
      "stateMutability": "pure",
      "type": "function"
    },
    {
      "constant": true,
      "inputs": [
        {
          "name": "_uint",
          "type": "uint256"
        }
      ],
      "name": "uintToString",
      "outputs": [
        {
          "name": "str",
          "type": "string"
        }
      ],
      "payable": false,
      "stateMutability": "pure",
      "type": "function"
    },
    {
      "constant": true,
      "inputs": [
        {
          "name": "_str",
          "type": "string"
        },
        {
          "name": "_startIndex",
          "type": "uint256"
        },
        {
          "name": "_endIndex",
          "type": "uint256"
        }
      ],
      "name": "substring",
      "outputs": [
        {
          "name": "",
          "type": "string"
        }
      ],
      "payable": false,
      "stateMutability": "pure",
      "type": "function"
    }
  ],
  "bytecode": "0x6060604052341561000f57600080fd5b61126e8061001e6000396000f30060606040526004361061008e576000357c0100000000000000000000000000000000000000000000000000000000900463ffffffff1680631052506f146100935780631445f713146101295780631dcd9b55146101f457806338b025b2146102d1578063886d3db914610337578063dae21454146103c8578063dca9541914610436578063e9395679146104d5575b600080fd5b61010f60048080356000191690602001909190803590602001908201803590602001908080601f0160208091040260200160405190810160405280939291908181526020018383808284378201915050505050509190803573ffffffffffffffffffffffffffffffffffffffff16906020019091905050610566565b604051808215151515815260200191505060405180910390f35b610179600480803590602001908201803590602001908080601f016020809104026020016040519081016040528093929190818152602001838380828437820191505050505050919050506105ce565b6040518080602001828103825283818151815260200191508051906020019080838360005b838110156101b957808201518184015260208101905061019e565b50505050905090810190601f1680156101e65780820380516001836020036101000a031916815260200191505b509250505060405180910390f35b610256600480803590602001908201803590602001908080601f01602080910402602001604051908101604052809392919081815260200183838082843782019150505050505091908035906020019091908035906020019091905050610751565b6040518080602001828103825283818151815260200191508051906020019080838360005b8381101561029657808201518184015260208101905061027b565b50505050905090810190601f1680156102c35780820380516001836020036101000a031916815260200191505b509250505060405180910390f35b610321600480803590602001908201803590602001908080601f01602080910402602001604051908101604052809392919081815260200183838082843782019150505050505091905050610883565b6040518082815260200191505060405180910390f35b61034d6004808035906020019091905050610e23565b6040518080602001828103825283818151815260200191508051906020019080838360005b8381101561038d578082015181840152602081019050610372565b50505050905090810190601f1680156103ba5780820380516001836020036101000a031916815260200191505b509250505060405180910390f35b610418600480803590602001908201803590602001908080601f01602080910402602001604051908101604052809392919081815260200183838082843782019150505050505091905050610e5c565b60405180826000191660001916815260200191505060405180910390f35b61049360048080356000191690602001909190803590602001908201803590602001908080601f01602080910402602001604051908101604052809392919081815260200183838082843782019150505050505091905050610fd0565b604051808273ffffffffffffffffffffffffffffffffffffffff1673ffffffffffffffffffffffffffffffffffffffff16815260200191505060405180910390f35b6104eb6004808035906020019091905050611102565b6040518080602001828103825283818151815260200191508051906020019080838360005b8381101561052b578082015181840152602081019050610510565b50505050905090810190601f1680156105585780820380516001836020036101000a031916815260200191505b509250505060405180910390f35b6000808273ffffffffffffffffffffffffffffffffffffffff161415151561058d57600080fd5b6105978484610fd0565b73ffffffffffffffffffffffffffffffffffffffff168273ffffffffffffffffffffffffffffffffffffffff161490509392505050565b6105d661121a565b60006105e061121a565b60006105ea61122e565b6105f261122e565b60008088519650600060028881151561060757fe5b0614151561061457600080fd5b60028781151561062057fe5b0460405180591061062e5750595b9080825280601f01601f1916602001820160405250955060009450600091505b8682101561074257610664898360018501610751565b9350610677896001840160028501610751565b925061068283610883565b601061068d86610883565b0201905061069a81610e23565b601f8151811015156106a857fe5b9060200101517f010000000000000000000000000000000000000000000000000000000000000090047f010000000000000000000000000000000000000000000000000000000000000002868680600101975081518110151561070757fe5b9060200101907effffffffffffffffffffffffffffffffffffffffffffffffffffffffffffff1916908160001a90535060028201915061064e565b85975050505050505050919050565b61075961122e565b61076161121a565b61076961121a565b600086925084861115151561077d57600080fd5b6000861015151561078d57600080fd5b8251851115151561079d57600080fd5b8585036040518059106107ad5750595b9080825280601f01601f191660200182016040525091508590505b848110156108765782818151811015156107de57fe5b9060200101517f010000000000000000000000000000000000000000000000000000000000000090047f0100000000000000000000000000000000000000000000000000000000000000028287830381518110151561083957fe5b9060200101907effffffffffffffffffffffffffffffffffffffffffffffffffffffffffffff1916908160001a90535080806001019150506107c8565b8193505050509392505050565b600061088d61121a565b82905060307f0100000000000000000000000000000000000000000000000000000000000000028160008151811015156108c357fe5b9060200101517f010000000000000000000000000000000000000000000000000000000000000090047f0100000000000000000000000000000000000000000000000000000000000000027effffffffffffffffffffffffffffffffffffffffffffffffffffffffffffff1916101580156109dc575060397f01000000000000000000000000000000000000000000000000000000000000000281600081518110151561096c57fe5b9060200101517f010000000000000000000000000000000000000000000000000000000000000090047f0100000000000000000000000000000000000000000000000000000000000000027effffffffffffffffffffffffffffffffffffffffffffffffffffffffffffff191611155b15610a685760308160008151811015156109f257fe5b9060200101517f010000000000000000000000000000000000000000000000000000000000000090047f0100000000000000000000000000000000000000000000000000000000000000027f01000000000000000000000000000000000000000000000000000000000000009004039150610e1d565b60417f010000000000000000000000000000000000000000000000000000000000000002816000815181101515610a9b57fe5b9060200101517f010000000000000000000000000000000000000000000000000000000000000090047f0100000000000000000000000000000000000000000000000000000000000000027effffffffffffffffffffffffffffffffffffffffffffffffffffffffffffff191610158015610bb4575060467f010000000000000000000000000000000000000000000000000000000000000002816000815181101515610b4457fe5b9060200101517f010000000000000000000000000000000000000000000000000000000000000090047f0100000000000000000000000000000000000000000000000000000000000000027effffffffffffffffffffffffffffffffffffffffffffffffffffffffffffff191611155b15610c40576037816000815181101515610bca57fe5b9060200101517f010000000000000000000000000000000000000000000000000000000000000090047f0100000000000000000000000000000000000000000000000000000000000000027f01000000000000000000000000000000000000000000000000000000000000009004039150610e1d565b60617f010000000000000000000000000000000000000000000000000000000000000002816000815181101515610c7357fe5b9060200101517f010000000000000000000000000000000000000000000000000000000000000090047f0100000000000000000000000000000000000000000000000000000000000000027effffffffffffffffffffffffffffffffffffffffffffffffffffffffffffff191610158015610d8c575060667f010000000000000000000000000000000000000000000000000000000000000002816000815181101515610d1c57fe5b9060200101517f010000000000000000000000000000000000000000000000000000000000000090047f0100000000000000000000000000000000000000000000000000000000000000027effffffffffffffffffffffffffffffffffffffffffffffffffffffffffffff191611155b15610e18576057816000815181101515610da257fe5b9060200101517f010000000000000000000000000000000000000000000000000000000000000090047f0100000000000000000000000000000000000000000000000000000000000000027f01000000000000000000000000000000000000000000000000000000000000009004039150610e1d565b600080fd5b50919050565b610e2b61121a565b6020604051805910610e3a5750595b9080825280601f01601f19166020018201604052509050816020820152919050565b600080610e6761121a565b83519150600082111515610e7a57600080fd5b6040805190810160405280601a81526020017f19457468657265756d205369676e6564204d6573736167653a0a000000000000815250905080610ebc83611102565b856040518084805190602001908083835b602083101515610ef25780518252602082019150602081019050602083039250610ecd565b6001836020036101000a03801982511681845116808217855250505050505090500183805190602001908083835b602083101515610f455780518252602082019150602081019050602083039250610f20565b6001836020036101000a03801982511681845116808217855250505050505090500182805190602001908083835b602083101515610f985780518252602082019150602081019050602083039250610f73565b6001836020036101000a0380198251168184511680821785525050505050509050019350505050604051809103902092505050919050565b600080600080610fde61121a565b6000600102876000191614151515610ff557600080fd5b6084865114151561100957600094506110f8565b61101e6110198760026084610751565b6105ce565b90506020810151935060408101519250606081015160001a9150601b8260ff16101561104b57601b820191505b601b8260ff1610806110605750601c8260ff16115b1561106e57600094506110f8565b600187838686604051600081526020016040526000604051602001526040518085600019166000191681526020018460ff1660ff16815260200183600019166000191681526020018260001916600019168152602001945050505050602060405160208103908084039060008661646e5a03f115156110ec57600080fd5b50506020604051035194505b5050505092915050565b61110a61122e565b60008061111561121a565b600080600094506000870193505b600084141515611149578480600101955050600a8481151561114157fe5b049350611123565b846040518059106111575750595b9080825280601f01601f191660200182016040525092506001850391505b60008714151561120d57600a8781151561118b57fe5b069050600a8781151561119a57fe5b049650806030017f0100000000000000000000000000000000000000000000000000000000000000028383806001900394508151811015156111d857fe5b9060200101907effffffffffffffffffffffffffffffffffffffffffffffffffffffffffffff1916908160001a905350611175565b8295505050505050919050565b602060405190810160405280600081525090565b6020604051908101604052806000815250905600a165627a7a7230582057ad8656a5a38d7979f748ec2f8bca0b724c30d31061e92071dbb84a6612fd560029",
  "source": "pragma solidity 0.4.19;\n\n\n/* solium-disable */\n// @credit https://gist.github.com/axic/5b33912c6f61ae6fd96d6c4a47afde6d#gistcomment-2314412\nlibrary ECTools {\n\n  // @dev Recovers the address which has signed a message\n  // @thanks https://gist.github.com/axic/5b33912c6f61ae6fd96d6c4a47afde6d\n  function recoverSigner(bytes32 _hashedMsg, string _sig) public pure returns (address) {\n    require(_hashedMsg != 0x00);\n\n    if (bytes(_sig).length != 132) {\n      return 0x0;\n    }\n    bytes32 r;\n    bytes32 s;\n    uint8 v;\n    bytes memory sig = hexstrToBytes(substring(_sig, 2, 132));\n    assembly {\n      r := mload(add(sig, 32))\n      s := mload(add(sig, 64))\n      v := byte(0, mload(add(sig, 96)))\n    }\n    if (v < 27) {\n      v += 27;\n    }\n    if (v < 27 || v > 28) {\n      return 0x0;\n    }\n    return ecrecover(_hashedMsg, v, r, s);\n  }\n\n  // @dev Verifies if the message is signed by an address\n  function isSignedBy(bytes32 _hashedMsg, string _sig, address _addr) public pure returns (bool) {\n    require(_addr != 0x0);\n\n    return _addr == recoverSigner(_hashedMsg, _sig);\n  }\n\n  // @dev Converts an hexstring to bytes\n  function hexstrToBytes(string _hexstr) public pure returns (bytes) {\n    uint len = bytes(_hexstr).length;\n    require(len % 2 == 0);\n\n    bytes memory bstr = bytes(new string(len / 2));\n    uint k = 0;\n    string memory s;\n    string memory r;\n    for (uint i = 0; i < len; i += 2) {\n      s = substring(_hexstr, i, i + 1);\n      r = substring(_hexstr, i + 1, i + 2);\n      uint p = parseInt16Char(s) * 16 + parseInt16Char(r);\n      bstr[k++] = uintToBytes32(p)[31];\n    }\n    return bstr;\n  }\n\n  // @dev Parses a hexchar, like 'a', and returns its hex value, in this case 10\n  function parseInt16Char(string _char) public pure returns (uint) {\n    bytes memory bresult = bytes(_char);\n    // bool decimals = false;\n    if ((bresult[0] >= 48) && (bresult[0] <= 57)) {\n      return uint(bresult[0]) - 48;\n    } else if ((bresult[0] >= 65) && (bresult[0] <= 70)) {\n      return uint(bresult[0]) - 55;\n    } else if ((bresult[0] >= 97) && (bresult[0] <= 102)) {\n      return uint(bresult[0]) - 87;\n    } else {\n      revert();\n    }\n  }\n\n  // @dev Converts a uint to a bytes32\n  // @thanks https://ethereum.stackexchange.com/questions/4170/how-to-convert-a-uint-to-bytes-in-solidity\n  function uintToBytes32(uint _uint) public pure returns (bytes b) {\n    b = new bytes(32);\n    assembly {mstore(add(b, 32), _uint)}\n  }\n\n  // @dev Hashes the signed message\n  // @ref https://github.com/ethereum/go-ethereum/issues/3731#issuecomment-293866868\n  function toEthereumSignedMessage(string _msg) public pure returns (bytes32) {\n    uint len = bytes(_msg).length;\n    require(len > 0);\n    bytes memory prefix = \"\\x19Ethereum Signed Message:\\n\";\n    return keccak256(prefix, uintToString(len), _msg);\n  }\n\n  // @dev Converts a uint in a string\n  function uintToString(uint _uint) public pure returns (string str) {\n    uint len = 0;\n    uint m = _uint + 0;\n    while (m != 0) {\n      len++;\n      m /= 10;\n    }\n    bytes memory b = new bytes(len);\n    uint i = len - 1;\n    while (_uint != 0) {\n      uint remainder = _uint % 10;\n      _uint = _uint / 10;\n      b[i--] = byte(48 + remainder);\n    }\n    str = string(b);\n  }\n\n\n  // @dev extract a substring\n  // @thanks https://ethereum.stackexchange.com/questions/31457/substring-in-solidity\n  function substring(string _str, uint _startIndex, uint _endIndex) public pure returns (string) {\n    bytes memory strBytes = bytes(_str);\n    require(_startIndex <= _endIndex);\n    require(_startIndex >= 0);\n    require(_endIndex <= strBytes.length);\n\n    bytes memory result = new bytes(_endIndex - _startIndex);\n    for (uint i = _startIndex; i < _endIndex; i++) {\n      result[i - _startIndex] = strBytes[i];\n    }\n    return string(result);\n  }\n\n}",
  "sourcePath": "/Users/marek/Documents/blockchain/planar/wallet/contracts/ECTools.sol",
  "compiler": {
    "name": "solc",
    "version": "0.4.19+commit.c4cbbb05.Emscripten.clang"
  },
  "schemaVersion": "1.0.1",
  "updatedAt": "2018-02-24T08:29:05.526Z"
}