{
  "contractName": "Retailers",
  "abi": [
    {
      "constant": false,
      "inputs": [
        {
          "name": "_to",
          "type": "address"
        },
        {
          "name": "_tokenId",
          "type": "uint256"
        }
      ],
      "name": "approve",
      "outputs": [],
      "payable": false,
      "stateMutability": "nonpayable",
      "type": "function"
    },
    {
      "constant": true,
      "inputs": [],
      "name": "totalSupply",
      "outputs": [
        {
          "name": "",
          "type": "uint256"
        }
      ],
      "payable": false,
      "stateMutability": "view",
      "type": "function"
    },
    {
      "constant": true,
      "inputs": [
        {
          "name": "_tokenId",
          "type": "uint256"
        }
      ],
      "name": "approvedFor",
      "outputs": [
        {
          "name": "",
          "type": "address"
        }
      ],
      "payable": false,
      "stateMutability": "view",
      "type": "function"
    },
    {
      "constant": false,
      "inputs": [],
      "name": "unpause",
      "outputs": [],
      "payable": false,
      "stateMutability": "nonpayable",
      "type": "function"
    },
    {
      "constant": true,
      "inputs": [
        {
          "name": "_owner",
          "type": "address"
        }
      ],
      "name": "tokensOf",
      "outputs": [
        {
          "name": "",
          "type": "uint256[]"
        }
      ],
      "payable": false,
      "stateMutability": "view",
      "type": "function"
    },
    {
      "constant": true,
      "inputs": [],
      "name": "paused",
      "outputs": [
        {
          "name": "",
          "type": "bool"
        }
      ],
      "payable": false,
      "stateMutability": "view",
      "type": "function"
    },
    {
      "constant": true,
      "inputs": [
        {
          "name": "_tokenId",
          "type": "uint256"
        }
      ],
      "name": "ownerOf",
      "outputs": [
        {
          "name": "",
          "type": "address"
        }
      ],
      "payable": false,
      "stateMutability": "view",
      "type": "function"
    },
    {
      "constant": true,
      "inputs": [
        {
          "name": "_owner",
          "type": "address"
        }
      ],
      "name": "balanceOf",
      "outputs": [
        {
          "name": "",
          "type": "uint256"
        }
      ],
      "payable": false,
      "stateMutability": "view",
      "type": "function"
    },
    {
      "constant": false,
      "inputs": [],
      "name": "pause",
      "outputs": [],
      "payable": false,
      "stateMutability": "nonpayable",
      "type": "function"
    },
    {
      "constant": true,
      "inputs": [
        {
          "name": "",
          "type": "uint256"
        }
      ],
      "name": "retailers",
      "outputs": [
        {
          "name": "name",
          "type": "bytes32"
        },
        {
          "name": "txFeeAmount",
          "type": "uint256"
        },
        {
          "name": "pubKey",
          "type": "bytes32"
        }
      ],
      "payable": false,
      "stateMutability": "view",
      "type": "function"
    },
    {
      "constant": true,
      "inputs": [],
      "name": "owner",
      "outputs": [
        {
          "name": "",
          "type": "address"
        }
      ],
      "payable": false,
      "stateMutability": "view",
      "type": "function"
    },
    {
      "constant": false,
      "inputs": [
        {
          "name": "_to",
          "type": "address"
        },
        {
          "name": "_tokenId",
          "type": "uint256"
        }
      ],
      "name": "transfer",
      "outputs": [],
      "payable": false,
      "stateMutability": "nonpayable",
      "type": "function"
    },
    {
      "constant": false,
      "inputs": [
        {
          "name": "_tokenId",
          "type": "uint256"
        }
      ],
      "name": "takeOwnership",
      "outputs": [],
      "payable": false,
      "stateMutability": "nonpayable",
      "type": "function"
    },
    {
      "constant": false,
      "inputs": [
        {
          "name": "newOwner",
          "type": "address"
        }
      ],
      "name": "transferOwnership",
      "outputs": [],
      "payable": false,
      "stateMutability": "nonpayable",
      "type": "function"
    },
    {
      "anonymous": false,
      "inputs": [],
      "name": "Pause",
      "type": "event"
    },
    {
      "anonymous": false,
      "inputs": [],
      "name": "Unpause",
      "type": "event"
    },
    {
      "anonymous": false,
      "inputs": [
        {
          "indexed": true,
          "name": "previousOwner",
          "type": "address"
        },
        {
          "indexed": true,
          "name": "newOwner",
          "type": "address"
        }
      ],
      "name": "OwnershipTransferred",
      "type": "event"
    },
    {
      "anonymous": false,
      "inputs": [
        {
          "indexed": true,
          "name": "_from",
          "type": "address"
        },
        {
          "indexed": true,
          "name": "_to",
          "type": "address"
        },
        {
          "indexed": false,
          "name": "_tokenId",
          "type": "uint256"
        }
      ],
      "name": "Transfer",
      "type": "event"
    },
    {
      "anonymous": false,
      "inputs": [
        {
          "indexed": true,
          "name": "_owner",
          "type": "address"
        },
        {
          "indexed": true,
          "name": "_approved",
          "type": "address"
        },
        {
          "indexed": false,
          "name": "_tokenId",
          "type": "uint256"
        }
      ],
      "name": "Approval",
      "type": "event"
    },
    {
      "constant": false,
      "inputs": [
        {
          "name": "_address",
          "type": "address"
        },
        {
          "name": "_name",
          "type": "bytes32"
        },
        {
          "name": "_txFeeAmount",
          "type": "uint256"
        },
        {
          "name": "_pubKey",
          "type": "bytes32"
        }
      ],
      "name": "addRetailer",
      "outputs": [
        {
          "name": "retailerId",
          "type": "uint256"
        }
      ],
      "payable": false,
      "stateMutability": "nonpayable",
      "type": "function"
    },
    {
      "constant": true,
      "inputs": [
        {
          "name": "_retailerId",
          "type": "uint256"
        }
      ],
      "name": "nameById",
      "outputs": [
        {
          "name": "",
          "type": "bytes32"
        }
      ],
      "payable": false,
      "stateMutability": "view",
      "type": "function"
    },
    {
      "constant": false,
      "inputs": [
        {
          "name": "_retailerId",
          "type": "uint256"
        },
        {
          "name": "_name",
          "type": "bytes32"
        }
      ],
      "name": "setNameById",
      "outputs": [],
      "payable": false,
      "stateMutability": "nonpayable",
      "type": "function"
    },
    {
      "constant": true,
      "inputs": [
        {
          "name": "_retailerId",
          "type": "uint256"
        }
      ],
      "name": "txFeeAmountById",
      "outputs": [
        {
          "name": "",
          "type": "uint256"
        }
      ],
      "payable": false,
      "stateMutability": "view",
      "type": "function"
    },
    {
      "constant": false,
      "inputs": [
        {
          "name": "_retailerId",
          "type": "uint256"
        },
        {
          "name": "_txFeeAmount",
          "type": "uint256"
        }
      ],
      "name": "setTxFeeAmountById",
      "outputs": [],
      "payable": false,
      "stateMutability": "nonpayable",
      "type": "function"
    },
    {
      "constant": true,
      "inputs": [
        {
          "name": "_retailerId",
          "type": "uint256"
        }
      ],
      "name": "pubKeyById",
      "outputs": [
        {
          "name": "",
          "type": "bytes32"
        }
      ],
      "payable": false,
      "stateMutability": "view",
      "type": "function"
    },
    {
      "constant": false,
      "inputs": [
        {
          "name": "_retailerId",
          "type": "uint256"
        },
        {
          "name": "_pubKey",
          "type": "bytes32"
        }
      ],
      "name": "setPubKey",
      "outputs": [],
      "payable": false,
      "stateMutability": "nonpayable",
      "type": "function"
    }
  ],
  "bytecode": "0x60606040526000600560146101000a81548160ff02191690831515021790555033600560006101000a81548173ffffffffffffffffffffffffffffffffffffffff021916908373ffffffffffffffffffffffffffffffffffffffff1602179055506119e38061006f6000396000f30060606040526004361061011d576000357c0100000000000000000000000000000000000000000000000000000000900463ffffffff168063095ea7b31461012257806318160ddd146101645780631ab97c631461018d578063263c481c146101cc5780632a6dd48f1461020b578063319520801461026e5780633f4ba83a146102a5578063403b059d146102ba578063435ad9eb146102e65780635a3f2672146103565780635c975abb146103e45780636352211e1461041157806370a08231146104745780638456cb59146104c1578063897ec7df146104d65780638da5cb5b1461052b578063a9059cbb14610580578063b2e6ceeb146105c2578063b50efe06146105e5578063d1fa399014610615578063f2fde38b14610645575b600080fd5b341561012d57600080fd5b610162600480803573ffffffffffffffffffffffffffffffffffffffff1690602001909190803590602001909190505061067e565b005b341561016f57600080fd5b610177610811565b6040518082815260200191505060405180910390f35b341561019857600080fd5b6101ae600480803590602001909190505061081a565b60405180826000191660001916815260200191505060405180910390f35b34156101d757600080fd5b6101ed6004808035906020019091905050610844565b60405180826000191660001916815260200191505060405180910390f35b341561021657600080fd5b61022c600480803590602001909190505061086e565b604051808273ffffffffffffffffffffffffffffffffffffffff1673ffffffffffffffffffffffffffffffffffffffff16815260200191505060405180910390f35b341561027957600080fd5b61028f60048080359060200190919050506108ab565b6040518082815260200191505060405180910390f35b34156102b057600080fd5b6102b86108d5565b005b34156102c557600080fd5b6102e46004808035906020019091908035906020019091905050610995565b005b34156102f157600080fd5b610340600480803573ffffffffffffffffffffffffffffffffffffffff169060200190919080356000191690602001909190803590602001909190803560001916906020019091905050610a02565b6040518082815260200191505060405180910390f35b341561036157600080fd5b61038d600480803573ffffffffffffffffffffffffffffffffffffffff16906020019091905050610c0c565b6040518080602001828103825283818151815260200191508051906020019060200280838360005b838110156103d05780820151818401526020810190506103b5565b505050509050019250505060405180910390f35b34156103ef57600080fd5b6103f7610ca9565b604051808215151515815260200191505060405180910390f35b341561041c57600080fd5b6104326004808035906020019091905050610cbc565b604051808273ffffffffffffffffffffffffffffffffffffffff1673ffffffffffffffffffffffffffffffffffffffff16815260200191505060405180910390f35b341561047f57600080fd5b6104ab600480803573ffffffffffffffffffffffffffffffffffffffff16906020019091905050610d3a565b6040518082815260200191505060405180910390f35b34156104cc57600080fd5b6104d4610d86565b005b34156104e157600080fd5b6104f76004808035906020019091905050610e47565b6040518084600019166000191681526020018381526020018260001916600019168152602001935050505060405180910390f35b341561053657600080fd5b61053e610e80565b604051808273ffffffffffffffffffffffffffffffffffffffff1673ffffffffffffffffffffffffffffffffffffffff16815260200191505060405180910390f35b341561058b57600080fd5b6105c0600480803573ffffffffffffffffffffffffffffffffffffffff16906020019091908035906020019091905050610ea6565b005b34156105cd57600080fd5b6105e36004808035906020019091905050610ef9565b005b34156105f057600080fd5b610613600480803590602001909190803560001916906020019091905050610f24565b005b341561062057600080fd5b610643600480803590602001909190803560001916906020019091905050610f95565b005b341561065057600080fd5b61067c600480803573ffffffffffffffffffffffffffffffffffffffff16906020019091905050611006565b005b6000813373ffffffffffffffffffffffffffffffffffffffff166106a182610cbc565b73ffffffffffffffffffffffffffffffffffffffff161415156106c357600080fd5b6106cc83610cbc565b91508173ffffffffffffffffffffffffffffffffffffffff168473ffffffffffffffffffffffffffffffffffffffff161415151561070957600080fd5b60006107148461086e565b73ffffffffffffffffffffffffffffffffffffffff1614158061074e575060008473ffffffffffffffffffffffffffffffffffffffff1614155b1561080b57836002600085815260200190815260200160002060006101000a81548173ffffffffffffffffffffffffffffffffffffffff021916908373ffffffffffffffffffffffffffffffffffffffff1602179055508373ffffffffffffffffffffffffffffffffffffffff168273ffffffffffffffffffffffffffffffffffffffff167f8c5be1e5ebec7d5bd14f71427d1e84f3dd0314c0f7b2291e5b200ac8c7c3b925856040518082815260200191505060405180910390a35b50505050565b60008054905090565b600060068281548110151561082b57fe5b9060005260206000209060030201600001549050919050565b600060068281548110151561085557fe5b9060005260206000209060030201600201549050919050565b60006002600083815260200190815260200160002060009054906101000a900473ffffffffffffffffffffffffffffffffffffffff169050919050565b60006006828154811015156108bc57fe5b9060005260206000209060030201600101549050919050565b600560009054906101000a900473ffffffffffffffffffffffffffffffffffffffff1673ffffffffffffffffffffffffffffffffffffffff163373ffffffffffffffffffffffffffffffffffffffff1614151561093157600080fd5b600560149054906101000a900460ff16151561094c57600080fd5b6000600560146101000a81548160ff0219169083151502179055507f7805862f689e2f13df9f062ff482ad3ad112aca9e0847911ed832e158c525b3360405160405180910390a1565b813373ffffffffffffffffffffffffffffffffffffffff166109b682610cbc565b73ffffffffffffffffffffffffffffffffffffffff161415156109d857600080fd5b816006848154811015156109e857fe5b906000526020600020906003020160010181905550505050565b6000610a0c611895565b6000600560009054906101000a900473ffffffffffffffffffffffffffffffffffffffff1673ffffffffffffffffffffffffffffffffffffffff163373ffffffffffffffffffffffffffffffffffffffff16141515610a6a57600080fd5b60007f010000000000000000000000000000000000000000000000000000000000000002866000602081101515610a9d57fe5b1a7f0100000000000000000000000000000000000000000000000000000000000000027effffffffffffffffffffffffffffffffffffffffffffffffffffffffffffff191614151515610aef57600080fd5b60007f010000000000000000000000000000000000000000000000000000000000000002846000602081101515610b2257fe5b1a7f0100000000000000000000000000000000000000000000000000000000000000027effffffffffffffffffffffffffffffffffffffffffffffffffffffffffffff191614151515610b7457600080fd5b6060604051908101604052808760001916815260200186815260200185600019168152509150600160068054806001018281610bb091906118bd565b916000526020600020906003020160008590919091506000820151816000019060001916905560208201518160010155604082015181600201906000191690555050039050610bff878261115e565b8092505050949350505050565b610c146118ef565b600360008373ffffffffffffffffffffffffffffffffffffffff1673ffffffffffffffffffffffffffffffffffffffff168152602001908152602001600020805480602002602001604051908101604052809291908181526020018280548015610c9d57602002820191906000526020600020905b815481526020019060010190808311610c89575b50505050509050919050565b600560149054906101000a900460ff1681565b6000806001600084815260200190815260200160002060009054906101000a900473ffffffffffffffffffffffffffffffffffffffff169050600073ffffffffffffffffffffffffffffffffffffffff168173ffffffffffffffffffffffffffffffffffffffff1614151515610d3157600080fd5b80915050919050565b6000600360008373ffffffffffffffffffffffffffffffffffffffff1673ffffffffffffffffffffffffffffffffffffffff168152602001908152602001600020805490509050919050565b600560009054906101000a900473ffffffffffffffffffffffffffffffffffffffff1673ffffffffffffffffffffffffffffffffffffffff163373ffffffffffffffffffffffffffffffffffffffff16141515610de257600080fd5b600560149054906101000a900460ff16151515610dfe57600080fd5b6001600560146101000a81548160ff0219169083151502179055507f6985a02210a168e66602d3235cb6db0e70f92b3ba4d376a33c0f3d9434bff62560405160405180910390a1565b600681815481101515610e5657fe5b90600052602060002090600302016000915090508060000154908060010154908060020154905083565b600560009054906101000a900473ffffffffffffffffffffffffffffffffffffffff1681565b803373ffffffffffffffffffffffffffffffffffffffff16610ec782610cbc565b73ffffffffffffffffffffffffffffffffffffffff16141515610ee957600080fd5b610ef43384846111f8565b505050565b610f033382611341565b1515610f0e57600080fd5b610f21610f1a82610cbc565b33836111f8565b50565b813373ffffffffffffffffffffffffffffffffffffffff16610f4582610cbc565b73ffffffffffffffffffffffffffffffffffffffff16141515610f6757600080fd5b81600684815481101515610f7757fe5b90600052602060002090600302016000018160001916905550505050565b813373ffffffffffffffffffffffffffffffffffffffff16610fb682610cbc565b73ffffffffffffffffffffffffffffffffffffffff16141515610fd857600080fd5b81600684815481101515610fe857fe5b90600052602060002090600302016002018160001916905550505050565b600560009054906101000a900473ffffffffffffffffffffffffffffffffffffffff1673ffffffffffffffffffffffffffffffffffffffff163373ffffffffffffffffffffffffffffffffffffffff1614151561106257600080fd5b600073ffffffffffffffffffffffffffffffffffffffff168173ffffffffffffffffffffffffffffffffffffffff161415151561109e57600080fd5b8073ffffffffffffffffffffffffffffffffffffffff16600560009054906101000a900473ffffffffffffffffffffffffffffffffffffffff1673ffffffffffffffffffffffffffffffffffffffff167f8be0079c531659141344cd1fd0a4f28419497f9722a3daafe3b4186f6b6457e060405160405180910390a380600560006101000a81548173ffffffffffffffffffffffffffffffffffffffff021916908373ffffffffffffffffffffffffffffffffffffffff16021790555050565b600073ffffffffffffffffffffffffffffffffffffffff168273ffffffffffffffffffffffffffffffffffffffff161415151561119a57600080fd5b6111a48282611382565b8173ffffffffffffffffffffffffffffffffffffffff1660007fddf252ad1be2c89b69c2b068fc378daa952ba7f163c4a11628f55a4df523b3ef836040518082815260200191505060405180910390a35050565b600073ffffffffffffffffffffffffffffffffffffffff168273ffffffffffffffffffffffffffffffffffffffff161415151561123457600080fd5b61123d81610cbc565b73ffffffffffffffffffffffffffffffffffffffff168273ffffffffffffffffffffffffffffffffffffffff161415151561127757600080fd5b8273ffffffffffffffffffffffffffffffffffffffff1661129782610cbc565b73ffffffffffffffffffffffffffffffffffffffff161415156112b957600080fd5b6112c383826114ed565b6112cd83826115d6565b6112d78282611382565b8173ffffffffffffffffffffffffffffffffffffffff168373ffffffffffffffffffffffffffffffffffffffff167fddf252ad1be2c89b69c2b068fc378daa952ba7f163c4a11628f55a4df523b3ef836040518082815260200191505060405180910390a3505050565b60008273ffffffffffffffffffffffffffffffffffffffff166113638361086e565b73ffffffffffffffffffffffffffffffffffffffff1614905092915050565b60008073ffffffffffffffffffffffffffffffffffffffff166001600084815260200190815260200160002060009054906101000a900473ffffffffffffffffffffffffffffffffffffffff1673ffffffffffffffffffffffffffffffffffffffff161415156113f157600080fd5b826001600084815260200190815260200160002060006101000a81548173ffffffffffffffffffffffffffffffffffffffff021916908373ffffffffffffffffffffffffffffffffffffffff16021790555061144c83610d3a565b9050600360008473ffffffffffffffffffffffffffffffffffffffff1673ffffffffffffffffffffffffffffffffffffffff168152602001908152602001600020805480600101828161149f9190611903565b9160005260206000209001600084909190915055508060046000848152602001908152602001600020819055506114e2600160005461185e90919063ffffffff16565b600081905550505050565b8173ffffffffffffffffffffffffffffffffffffffff1661150d82610cbc565b73ffffffffffffffffffffffffffffffffffffffff1614151561152f57600080fd5b60006002600083815260200190815260200160002060006101000a81548173ffffffffffffffffffffffffffffffffffffffff021916908373ffffffffffffffffffffffffffffffffffffffff16021790555060008273ffffffffffffffffffffffffffffffffffffffff167f8c5be1e5ebec7d5bd14f71427d1e84f3dd0314c0f7b2291e5b200ac8c7c3b925836040518082815260200191505060405180910390a35050565b60008060008473ffffffffffffffffffffffffffffffffffffffff166115fb85610cbc565b73ffffffffffffffffffffffffffffffffffffffff1614151561161d57600080fd5b6004600085815260200190815260200160002054925061164f600161164187610d3a565b61187c90919063ffffffff16565b9150600360008673ffffffffffffffffffffffffffffffffffffffff1673ffffffffffffffffffffffffffffffffffffffff1681526020019081526020016000208281548110151561169d57fe5b906000526020600020900154905060006001600086815260200190815260200160002060006101000a81548173ffffffffffffffffffffffffffffffffffffffff021916908373ffffffffffffffffffffffffffffffffffffffff16021790555080600360008773ffffffffffffffffffffffffffffffffffffffff1673ffffffffffffffffffffffffffffffffffffffff1681526020019081526020016000208481548110151561174b57fe5b9060005260206000209001819055506000600360008773ffffffffffffffffffffffffffffffffffffffff1673ffffffffffffffffffffffffffffffffffffffff168152602001908152602001600020838154811015156117a857fe5b906000526020600020900181905550600360008673ffffffffffffffffffffffffffffffffffffffff1673ffffffffffffffffffffffffffffffffffffffff168152602001908152602001600020805480919060019003611809919061192f565b5060006004600086815260200190815260200160002081905550826004600083815260200190815260200160002081905550611851600160005461187c90919063ffffffff16565b6000819055505050505050565b600080828401905083811015151561187257fe5b8091505092915050565b600082821115151561188a57fe5b818303905092915050565b6060604051908101604052806000801916815260200160008152602001600080191681525090565b8154818355818115116118ea576003028160030283600052602060002091820191016118e9919061195b565b5b505050565b602060405190810160405280600081525090565b81548183558181151161192a578183600052602060002091820191016119299190611992565b5b505050565b815481835581811511611956578183600052602060002091820191016119559190611992565b5b505050565b61198f91905b8082111561198b576000808201600090556001820160009055600282016000905550600301611961565b5090565b90565b6119b491905b808211156119b0576000816000905550600101611998565b5090565b905600a165627a7a72305820c6311f01e14ecd2d0bae679f93ce1123b555dc874887b8e9fc19a3511a18de890029",
  "source": "pragma solidity 0.4.19;\n\nimport {ERC721Token} from \"zeppelin-solidity/contracts/token/ERC721/ERC721Token.sol\";\nimport {Pausable} from \"zeppelin-solidity/contracts/lifecycle/Pausable.sol\";\n\n/**\n * Maintains a list of authorised ticket retailers\n */\ncontract Retailers is ERC721Token, Pausable {\n\n  /**\n   * Retailer details\n   */\n  struct Retailer {\n    bytes32 name;\n    uint txFeeAmount;\n    bytes32 pubKey;\n  }\n\n  /**\n   * Index of retailers\n   */\n  Retailer[] public retailers;\n\n  /**\n   * Adds the given retailer to the index and returns their ID. Note that the message sender is not the owner of the\n   * retailer generated - the owner is the _address property. \n   */\n  function addRetailer(\n    address _address,\n    bytes32 _name,\n    uint _txFeeAmount,\n    bytes32 _pubKey\n  ) \n    public\n    onlyOwner()\n    returns (uint retailerId) \n  {\n    require(_name[0] != 0);\n    require(_pubKey[0] != 0);\n\n    Retailer memory _retailer = Retailer({\n      name: _name,\n      txFeeAmount: _txFeeAmount,\n      pubKey: _pubKey\n    });\n    uint256 opId = retailers.push(_retailer) - 1;\n\n    _mint(_address, opId);\n\n    return opId;\n  }\n\n  /**\n   * Get the name of the given retailer\n   */\n  function nameById(uint _retailerId) public constant returns(bytes32) {\n    return retailers[_retailerId].name;\n  }\n\n  /**\n   * Set the name of the given retailer\n   */\n  function setNameById(uint _retailerId, bytes32 _name) public onlyOwnerOf(_retailerId) {\n    retailers[_retailerId].name = _name;\n  }\n\n  /**\n   * Get the transaction fee charged by a retailer\n   */\n  function txFeeAmountById(uint _retailerId) public constant returns(uint) {\n    return retailers[_retailerId].txFeeAmount;\n  }\n\n  /**\n   * Set the transaction fee of a retailer\n   */\n  function setTxFeeAmountById(uint _retailerId, uint _txFeeAmount) public onlyOwnerOf(_retailerId) {\n    retailers[_retailerId].txFeeAmount = _txFeeAmount;\n  }\n\n  /**\n   * Get a retailers public key\n   */\n  function pubKeyById(uint _retailerId) public constant returns(bytes32) {\n    return retailers[_retailerId].pubKey;\n  }\n\n  /**\n   * Set the retailers public key\n   */\n  function setPubKey(uint _retailerId, bytes32 _pubKey) public onlyOwnerOf(_retailerId) {\n    retailers[_retailerId].pubKey = _pubKey;\n  }\n}\n",
  "sourcePath": "/Users/marek/Documents/blockchain/planar/wallet/contracts/Retailers.sol",
  "compiler": {
    "name": "solc",
    "version": "0.4.19+commit.c4cbbb05.Emscripten.clang"
  },
  "schemaVersion": "1.0.1",
  "updatedAt": "2018-02-24T08:29:05.522Z"
}