{
  "contractName": "TicketWallet",
  "abi": [
    {
      "constant": true,
      "inputs": [],
      "name": "name",
      "outputs": [
        {
          "name": "",
          "type": "string"
        }
      ],
      "payable": false,
      "stateMutability": "view",
      "type": "function"
    },
    {
      "constant": false,
      "inputs": [
        {
          "name": "_to",
          "type": "address"
        },
        {
          "name": "_tokenId",
          "type": "uint256"
        }
      ],
      "name": "approve",
      "outputs": [],
      "payable": false,
      "stateMutability": "nonpayable",
      "type": "function"
    },
    {
      "constant": true,
      "inputs": [],
      "name": "totalSupply",
      "outputs": [
        {
          "name": "",
          "type": "uint256"
        }
      ],
      "payable": false,
      "stateMutability": "view",
      "type": "function"
    },
    {
      "constant": true,
      "inputs": [
        {
          "name": "_tokenId",
          "type": "uint256"
        }
      ],
      "name": "approvedFor",
      "outputs": [
        {
          "name": "",
          "type": "address"
        }
      ],
      "payable": false,
      "stateMutability": "view",
      "type": "function"
    },
    {
      "constant": true,
      "inputs": [],
      "name": "retailers",
      "outputs": [
        {
          "name": "",
          "type": "address"
        }
      ],
      "payable": false,
      "stateMutability": "view",
      "type": "function"
    },
    {
      "constant": false,
      "inputs": [],
      "name": "unpause",
      "outputs": [],
      "payable": false,
      "stateMutability": "nonpayable",
      "type": "function"
    },
    {
      "constant": true,
      "inputs": [
        {
          "name": "",
          "type": "uint256"
        }
      ],
      "name": "tickets",
      "outputs": [
        {
          "name": "description",
          "type": "bytes32"
        },
        {
          "name": "price",
          "type": "uint256"
        },
        {
          "name": "payloadUrl",
          "type": "bytes32"
        },
        {
          "name": "state",
          "type": "uint8"
        },
        {
          "name": "created",
          "type": "uint256"
        },
        {
          "name": "fulfilmentMethod",
          "type": "uint8"
        },
        {
          "name": "fulfilmentUrl",
          "type": "bytes32"
        },
        {
          "name": "retailerId",
          "type": "uint256"
        }
      ],
      "payable": false,
      "stateMutability": "view",
      "type": "function"
    },
    {
      "constant": true,
      "inputs": [
        {
          "name": "_owner",
          "type": "address"
        }
      ],
      "name": "tokensOf",
      "outputs": [
        {
          "name": "",
          "type": "uint256[]"
        }
      ],
      "payable": false,
      "stateMutability": "view",
      "type": "function"
    },
    {
      "constant": true,
      "inputs": [],
      "name": "paused",
      "outputs": [
        {
          "name": "",
          "type": "bool"
        }
      ],
      "payable": false,
      "stateMutability": "view",
      "type": "function"
    },
    {
      "constant": true,
      "inputs": [
        {
          "name": "_tokenId",
          "type": "uint256"
        }
      ],
      "name": "ownerOf",
      "outputs": [
        {
          "name": "",
          "type": "address"
        }
      ],
      "payable": false,
      "stateMutability": "view",
      "type": "function"
    },
    {
      "constant": true,
      "inputs": [
        {
          "name": "_owner",
          "type": "address"
        }
      ],
      "name": "balanceOf",
      "outputs": [
        {
          "name": "",
          "type": "uint256"
        }
      ],
      "payable": false,
      "stateMutability": "view",
      "type": "function"
    },
    {
      "constant": false,
      "inputs": [],
      "name": "pause",
      "outputs": [],
      "payable": false,
      "stateMutability": "nonpayable",
      "type": "function"
    },
    {
      "constant": true,
      "inputs": [],
      "name": "owner",
      "outputs": [
        {
          "name": "",
          "type": "address"
        }
      ],
      "payable": false,
      "stateMutability": "view",
      "type": "function"
    },
    {
      "constant": false,
      "inputs": [
        {
          "name": "_to",
          "type": "address"
        },
        {
          "name": "_tokenId",
          "type": "uint256"
        }
      ],
      "name": "transfer",
      "outputs": [],
      "payable": false,
      "stateMutability": "nonpayable",
      "type": "function"
    },
    {
      "constant": false,
      "inputs": [
        {
          "name": "_tokenId",
          "type": "uint256"
        }
      ],
      "name": "takeOwnership",
      "outputs": [],
      "payable": false,
      "stateMutability": "nonpayable",
      "type": "function"
    },
    {
      "constant": false,
      "inputs": [
        {
          "name": "newOwner",
          "type": "address"
        }
      ],
      "name": "transferOwnership",
      "outputs": [],
      "payable": false,
      "stateMutability": "nonpayable",
      "type": "function"
    },
    {
      "inputs": [
        {
          "name": "_retailers",
          "type": "address"
        }
      ],
      "payable": false,
      "stateMutability": "nonpayable",
      "type": "constructor"
    },
    {
      "anonymous": false,
      "inputs": [],
      "name": "Pause",
      "type": "event"
    },
    {
      "anonymous": false,
      "inputs": [],
      "name": "Unpause",
      "type": "event"
    },
    {
      "anonymous": false,
      "inputs": [
        {
          "indexed": true,
          "name": "previousOwner",
          "type": "address"
        },
        {
          "indexed": true,
          "name": "newOwner",
          "type": "address"
        }
      ],
      "name": "OwnershipTransferred",
      "type": "event"
    },
    {
      "anonymous": false,
      "inputs": [
        {
          "indexed": true,
          "name": "_from",
          "type": "address"
        },
        {
          "indexed": true,
          "name": "_to",
          "type": "address"
        },
        {
          "indexed": false,
          "name": "_tokenId",
          "type": "uint256"
        }
      ],
      "name": "Transfer",
      "type": "event"
    },
    {
      "anonymous": false,
      "inputs": [
        {
          "indexed": true,
          "name": "_owner",
          "type": "address"
        },
        {
          "indexed": true,
          "name": "_approved",
          "type": "address"
        },
        {
          "indexed": false,
          "name": "_tokenId",
          "type": "uint256"
        }
      ],
      "name": "Approval",
      "type": "event"
    },
    {
      "constant": false,
      "inputs": [
        {
          "name": "_description",
          "type": "bytes32"
        },
        {
          "name": "_expiry",
          "type": "uint256"
        },
        {
          "name": "_price",
          "type": "uint256"
        },
        {
          "name": "_retailerId",
          "type": "uint256"
        },
        {
          "name": "_signature",
          "type": "string"
        },
        {
          "name": "_payloadUrl",
          "type": "bytes32"
        },
        {
          "name": "_fulfilmentMethod",
          "type": "uint8"
        }
      ],
      "name": "createTicket",
      "outputs": [
        {
          "name": "",
          "type": "uint256"
        }
      ],
      "payable": true,
      "stateMutability": "payable",
      "type": "function"
    },
    {
      "constant": false,
      "inputs": [
        {
          "name": "_ticketId",
          "type": "uint256"
        },
        {
          "name": "_fulfilmentUrl",
          "type": "bytes32"
        }
      ],
      "name": "fulfilTicket",
      "outputs": [],
      "payable": false,
      "stateMutability": "nonpayable",
      "type": "function"
    },
    {
      "constant": true,
      "inputs": [
        {
          "name": "_retailerId",
          "type": "uint256"
        }
      ],
      "name": "getAddressByRetailerId",
      "outputs": [
        {
          "name": "",
          "type": "address"
        }
      ],
      "payable": false,
      "stateMutability": "view",
      "type": "function"
    },
    {
      "constant": true,
      "inputs": [
        {
          "name": "_retailerId",
          "type": "uint256"
        }
      ],
      "name": "getTxFeeAmountByRetailerId",
      "outputs": [
        {
          "name": "",
          "type": "uint256"
        }
      ],
      "payable": false,
      "stateMutability": "view",
      "type": "function"
    },
    {
      "constant": false,
      "inputs": [
        {
          "name": "_newRetailers",
          "type": "address"
        }
      ],
      "name": "setRetailerAddress",
      "outputs": [],
      "payable": false,
      "stateMutability": "nonpayable",
      "type": "function"
    },
    {
      "constant": true,
      "inputs": [
        {
          "name": "_ticketId",
          "type": "uint256"
        }
      ],
      "name": "getTicketDescriptionById",
      "outputs": [
        {
          "name": "",
          "type": "bytes32"
        }
      ],
      "payable": false,
      "stateMutability": "view",
      "type": "function"
    },
    {
      "constant": true,
      "inputs": [
        {
          "name": "_ticketId",
          "type": "uint256"
        }
      ],
      "name": "getTicketPayloadUrlById",
      "outputs": [
        {
          "name": "",
          "type": "bytes32"
        }
      ],
      "payable": false,
      "stateMutability": "view",
      "type": "function"
    },
    {
      "constant": true,
      "inputs": [
        {
          "name": "_ticketId",
          "type": "uint256"
        }
      ],
      "name": "getFulfilmentUrlById",
      "outputs": [
        {
          "name": "",
          "type": "bytes32"
        }
      ],
      "payable": false,
      "stateMutability": "view",
      "type": "function"
    }
  ],
  "bytecode": "0x60606040526000600560146101000a81548160ff021916908315150217905550341561002a57600080fd5b6040516020806122998339810160405280805190602001909190505033600560006101000a81548173ffffffffffffffffffffffffffffffffffffffff021916908373ffffffffffffffffffffffffffffffffffffffff16021790555080600760006101000a81548173ffffffffffffffffffffffffffffffffffffffff021916908373ffffffffffffffffffffffffffffffffffffffff160217905550506121c1806100d86000396000f30060606040526004361061013e576000357c0100000000000000000000000000000000000000000000000000000000900463ffffffff16806303f4c81c1461014357806306fdde03146101a6578063076fea1514610234578063095ea7b31461026b57806318160ddd146102ad5780632a6dd48f146102d65780633cafc8a2146103395780633f4ba83a1461038e57806346eb3a2d146103a357806350b44712146103e25780635a3f26721461047e5780635c975abb1461050c5780635df336f4146105395780636352211e146105725780636e6b58bc146105d557806370a082311461067c57806380275a75146106c95780638456cb59146107085780638da5cb5b1461071d5780639c9615fb14610772578063a9059cbb146107b1578063b2e6ceeb146107f3578063f2fde38b14610816578063f73409631461084f575b600080fd5b341561014e57600080fd5b610164600480803590602001909190505061087f565b604051808273ffffffffffffffffffffffffffffffffffffffff1673ffffffffffffffffffffffffffffffffffffffff16815260200191505060405180910390f35b34156101b157600080fd5b6101b961093c565b6040518080602001828103825283818151815260200191508051906020019080838360005b838110156101f95780820151818401526020810190506101de565b50505050905090810190601f1680156102265780820380516001836020036101000a031916815260200191505b509250505060405180910390f35b341561023f57600080fd5b6102556004808035906020019091905050610975565b6040518082815260200191505060405180910390f35b341561027657600080fd5b6102ab600480803573ffffffffffffffffffffffffffffffffffffffff16906020019091908035906020019091905050610a32565b005b34156102b857600080fd5b6102c0610bc5565b6040518082815260200191505060405180910390f35b34156102e157600080fd5b6102f76004808035906020019091905050610bce565b604051808273ffffffffffffffffffffffffffffffffffffffff1673ffffffffffffffffffffffffffffffffffffffff16815260200191505060405180910390f35b341561034457600080fd5b61034c610c0b565b604051808273ffffffffffffffffffffffffffffffffffffffff1673ffffffffffffffffffffffffffffffffffffffff16815260200191505060405180910390f35b341561039957600080fd5b6103a1610c31565b005b34156103ae57600080fd5b6103c46004808035906020019091905050610cf1565b60405180826000191660001916815260200191505060405180910390f35b34156103ed57600080fd5b6104036004808035906020019091905050610dbd565b604051808960001916600019168152602001888152602001876000191660001916815260200186600281111561043557fe5b60ff16815260200185815260200184600281111561044f57fe5b60ff16815260200183600019166000191681526020018281526020019850505050505050505060405180910390f35b341561048957600080fd5b6104b5600480803573ffffffffffffffffffffffffffffffffffffffff16906020019091905050610e2e565b6040518080602001828103825283818151815260200191508051906020019060200280838360005b838110156104f85780820151818401526020810190506104dd565b505050509050019250505060405180910390f35b341561051757600080fd5b61051f610ecb565b604051808215151515815260200191505060405180910390f35b341561054457600080fd5b610570600480803573ffffffffffffffffffffffffffffffffffffffff16906020019091905050610ede565b005b341561057d57600080fd5b6105936004808035906020019091905050610f7e565b604051808273ffffffffffffffffffffffffffffffffffffffff1673ffffffffffffffffffffffffffffffffffffffff16815260200191505060405180910390f35b61066660048080356000191690602001909190803590602001909190803590602001909190803590602001909190803590602001908201803590602001908080601f016020809104026020016040519081016040528093929190818152602001838380828437820191505050505050919080356000191690602001909190803560ff16906020019091905050610ffc565b6040518082815260200191505060405180910390f35b341561068757600080fd5b6106b3600480803573ffffffffffffffffffffffffffffffffffffffff169060200190919050506112f9565b6040518082815260200191505060405180910390f35b34156106d457600080fd5b6106ea6004808035906020019091905050611345565b60405180826000191660001916815260200191505060405180910390f35b341561071357600080fd5b61071b611411565b005b341561072857600080fd5b6107306114d2565b604051808273ffffffffffffffffffffffffffffffffffffffff1673ffffffffffffffffffffffffffffffffffffffff16815260200191505060405180910390f35b341561077d57600080fd5b61079360048080359060200190919050506114f8565b60405180826000191660001916815260200191505060405180910390f35b34156107bc57600080fd5b6107f1600480803573ffffffffffffffffffffffffffffffffffffffff16906020019091908035906020019091905050611616565b005b34156107fe57600080fd5b6108146004808035906020019091905050611669565b005b341561082157600080fd5b61084d600480803573ffffffffffffffffffffffffffffffffffffffff16906020019091905050611694565b005b341561085a57600080fd5b61087d6004808035906020019091908035600019169060200190919050506117ec565b005b6000600760009054906101000a900473ffffffffffffffffffffffffffffffffffffffff1673ffffffffffffffffffffffffffffffffffffffff16636352211e836000604051602001526040518263ffffffff167c010000000000000000000000000000000000000000000000000000000002815260040180828152602001915050602060405180830381600087803b151561091a57600080fd5b6102c65a03f1151561092b57600080fd5b505050604051805190509050919050565b6040805190810160405280601f81526020017f5469636b65742057616c6c657420627920506c616e6172204e6574776f726b0081525081565b6000600760009054906101000a900473ffffffffffffffffffffffffffffffffffffffff1673ffffffffffffffffffffffffffffffffffffffff166331952080836000604051602001526040518263ffffffff167c010000000000000000000000000000000000000000000000000000000002815260040180828152602001915050602060405180830381600087803b1515610a1057600080fd5b6102c65a03f11515610a2157600080fd5b505050604051805190509050919050565b6000813373ffffffffffffffffffffffffffffffffffffffff16610a5582610f7e565b73ffffffffffffffffffffffffffffffffffffffff16141515610a7757600080fd5b610a8083610f7e565b91508173ffffffffffffffffffffffffffffffffffffffff168473ffffffffffffffffffffffffffffffffffffffff1614151515610abd57600080fd5b6000610ac884610bce565b73ffffffffffffffffffffffffffffffffffffffff16141580610b02575060008473ffffffffffffffffffffffffffffffffffffffff1614155b15610bbf57836002600085815260200190815260200160002060006101000a81548173ffffffffffffffffffffffffffffffffffffffff021916908373ffffffffffffffffffffffffffffffffffffffff1602179055508373ffffffffffffffffffffffffffffffffffffffff168273ffffffffffffffffffffffffffffffffffffffff167f8c5be1e5ebec7d5bd14f71427d1e84f3dd0314c0f7b2291e5b200ac8c7c3b925856040518082815260200191505060405180910390a35b50505050565b60008054905090565b60006002600083815260200190815260200160002060009054906101000a900473ffffffffffffffffffffffffffffffffffffffff169050919050565b600760009054906101000a900473ffffffffffffffffffffffffffffffffffffffff1681565b600560009054906101000a900473ffffffffffffffffffffffffffffffffffffffff1673ffffffffffffffffffffffffffffffffffffffff163373ffffffffffffffffffffffffffffffffffffffff16141515610c8d57600080fd5b600560149054906101000a900460ff161515610ca857600080fd5b6000600560146101000a81548160ff0219169083151502179055507f7805862f689e2f13df9f062ff482ad3ad112aca9e0847911ed832e158c525b3360405160405180910390a1565b6000813373ffffffffffffffffffffffffffffffffffffffff16610d34600683815481101515610d1d57fe5b90600052602060002090600802016007015461087f565b73ffffffffffffffffffffffffffffffffffffffff161480610d8957503373ffffffffffffffffffffffffffffffffffffffff16610d7182610f7e565b73ffffffffffffffffffffffffffffffffffffffff16145b1515610d9457600080fd5b600683815481101515610da357fe5b906000526020600020906008020160020154915050919050565b600681815481101515610dcc57fe5b90600052602060002090600802016000915090508060000154908060010154908060020154908060030160009054906101000a900460ff16908060040154908060050160009054906101000a900460ff16908060060154908060070154905088565b610e36611ff6565b600360008373ffffffffffffffffffffffffffffffffffffffff1673ffffffffffffffffffffffffffffffffffffffff168152602001908152602001600020805480602002602001604051908101604052809291908181526020018280548015610ebf57602002820191906000526020600020905b815481526020019060010190808311610eab575b50505050509050919050565b600560149054906101000a900460ff1681565b600560009054906101000a900473ffffffffffffffffffffffffffffffffffffffff1673ffffffffffffffffffffffffffffffffffffffff163373ffffffffffffffffffffffffffffffffffffffff16141515610f3a57600080fd5b80600760006101000a81548173ffffffffffffffffffffffffffffffffffffffff021916908373ffffffffffffffffffffffffffffffffffffffff16021790555050565b6000806001600084815260200190815260200160002060009054906101000a900473ffffffffffffffffffffffffffffffffffffffff169050600073ffffffffffffffffffffffffffffffffffffffff168173ffffffffffffffffffffffffffffffffffffffff1614151515610ff357600080fd5b80915050919050565b60008061100761200a565b600073__ECTools_______________________________631052506f878b8d604051808460001916600019168152602001838152602001828152602001935050505060405180910390208961105b8c61087f565b6000604051602001526040518463ffffffff167c0100000000000000000000000000000000000000000000000000000000028152600401808460001916600019168152602001806020018373ffffffffffffffffffffffffffffffffffffffff1673ffffffffffffffffffffffffffffffffffffffff168152602001828103825284818151815260200191508051906020019080838360005b8381101561110f5780820151818401526020810190506110f4565b50505050905090810190601f16801561113c5780820380516001836020036101000a031916815260200191505b5094505050505060206040518083038186803b151561115a57600080fd5b6102c65a03f4151561116b57600080fd5b50505060405180519050151561118057600080fd5b428a10151561118e57600080fd5b61119788610975565b8901925082341415156111a957600080fd5b610100604051908101604052808c60001916815260200184815260200187600019168152602001600060028111156111dd57fe5b81526020014281526020018660028111156111f457fe5b81526020016000600102600019168152602001898152509150600160068054806001018281611223919061206f565b9160005260206000209060080201600085909190915060008201518160000190600019169055602082015181600101556040820151816002019060001916905560608201518160030160006101000a81548160ff0219169083600281111561128757fe5b02179055506080820151816004015560a08201518160050160006101000a81548160ff021916908360028111156112ba57fe5b021790555060c0820151816006019060001916905560e0820151816007015550500390506112e833826118bf565b809350505050979650505050505050565b6000600360008373ffffffffffffffffffffffffffffffffffffffff1673ffffffffffffffffffffffffffffffffffffffff168152602001908152602001600020805490509050919050565b6000813373ffffffffffffffffffffffffffffffffffffffff1661138860068381548110151561137157fe5b90600052602060002090600802016007015461087f565b73ffffffffffffffffffffffffffffffffffffffff1614806113dd57503373ffffffffffffffffffffffffffffffffffffffff166113c582610f7e565b73ffffffffffffffffffffffffffffffffffffffff16145b15156113e857600080fd5b6006838154811015156113f757fe5b906000526020600020906008020160000154915050919050565b600560009054906101000a900473ffffffffffffffffffffffffffffffffffffffff1673ffffffffffffffffffffffffffffffffffffffff163373ffffffffffffffffffffffffffffffffffffffff1614151561146d57600080fd5b600560149054906101000a900460ff1615151561148957600080fd5b6001600560146101000a81548160ff0219169083151502179055507f6985a02210a168e66602d3235cb6db0e70f92b3ba4d376a33c0f3d9434bff62560405160405180910390a1565b600560009054906101000a900473ffffffffffffffffffffffffffffffffffffffff1681565b6000813373ffffffffffffffffffffffffffffffffffffffff1661153b60068381548110151561152457fe5b90600052602060002090600802016007015461087f565b73ffffffffffffffffffffffffffffffffffffffff16148061159057503373ffffffffffffffffffffffffffffffffffffffff1661157882610f7e565b73ffffffffffffffffffffffffffffffffffffffff16145b151561159b57600080fd5b600160028111156115a857fe5b6006848154811015156115b757fe5b906000526020600020906008020160030160009054906101000a900460ff1660028111156115e157fe5b1415156115ed57600080fd5b6006838154811015156115fc57fe5b906000526020600020906008020160060154915050919050565b803373ffffffffffffffffffffffffffffffffffffffff1661163782610f7e565b73ffffffffffffffffffffffffffffffffffffffff1614151561165957600080fd5b611664338484611959565b505050565b6116733382611aa2565b151561167e57600080fd5b61169161168a82610f7e565b3383611959565b50565b600560009054906101000a900473ffffffffffffffffffffffffffffffffffffffff1673ffffffffffffffffffffffffffffffffffffffff163373ffffffffffffffffffffffffffffffffffffffff161415156116f057600080fd5b600073ffffffffffffffffffffffffffffffffffffffff168173ffffffffffffffffffffffffffffffffffffffff161415151561172c57600080fd5b8073ffffffffffffffffffffffffffffffffffffffff16600560009054906101000a900473ffffffffffffffffffffffffffffffffffffffff1673ffffffffffffffffffffffffffffffffffffffff167f8be0079c531659141344cd1fd0a4f28419497f9722a3daafe3b4186f6b6457e060405160405180910390a380600560006101000a81548173ffffffffffffffffffffffffffffffffffffffff021916908373ffffffffffffffffffffffffffffffffffffffff16021790555050565b813373ffffffffffffffffffffffffffffffffffffffff1661182d60068381548110151561181657fe5b90600052602060002090600802016007015461087f565b73ffffffffffffffffffffffffffffffffffffffff1614151561184f57600080fd5b600160068481548110151561186057fe5b906000526020600020906008020160030160006101000a81548160ff0219169083600281111561188c57fe5b0217905550816006848154811015156118a157fe5b90600052602060002090600802016006018160001916905550505050565b600073ffffffffffffffffffffffffffffffffffffffff168273ffffffffffffffffffffffffffffffffffffffff16141515156118fb57600080fd5b6119058282611ae3565b8173ffffffffffffffffffffffffffffffffffffffff1660007fddf252ad1be2c89b69c2b068fc378daa952ba7f163c4a11628f55a4df523b3ef836040518082815260200191505060405180910390a35050565b600073ffffffffffffffffffffffffffffffffffffffff168273ffffffffffffffffffffffffffffffffffffffff161415151561199557600080fd5b61199e81610f7e565b73ffffffffffffffffffffffffffffffffffffffff168273ffffffffffffffffffffffffffffffffffffffff16141515156119d857600080fd5b8273ffffffffffffffffffffffffffffffffffffffff166119f882610f7e565b73ffffffffffffffffffffffffffffffffffffffff16141515611a1a57600080fd5b611a248382611c4e565b611a2e8382611d37565b611a388282611ae3565b8173ffffffffffffffffffffffffffffffffffffffff168373ffffffffffffffffffffffffffffffffffffffff167fddf252ad1be2c89b69c2b068fc378daa952ba7f163c4a11628f55a4df523b3ef836040518082815260200191505060405180910390a3505050565b60008273ffffffffffffffffffffffffffffffffffffffff16611ac483610bce565b73ffffffffffffffffffffffffffffffffffffffff1614905092915050565b60008073ffffffffffffffffffffffffffffffffffffffff166001600084815260200190815260200160002060009054906101000a900473ffffffffffffffffffffffffffffffffffffffff1673ffffffffffffffffffffffffffffffffffffffff16141515611b5257600080fd5b826001600084815260200190815260200160002060006101000a81548173ffffffffffffffffffffffffffffffffffffffff021916908373ffffffffffffffffffffffffffffffffffffffff160217905550611bad836112f9565b9050600360008473ffffffffffffffffffffffffffffffffffffffff1673ffffffffffffffffffffffffffffffffffffffff1681526020019081526020016000208054806001018281611c0091906120a1565b916000526020600020900160008490919091505550806004600084815260200190815260200160002081905550611c436001600054611fbf90919063ffffffff16565b600081905550505050565b8173ffffffffffffffffffffffffffffffffffffffff16611c6e82610f7e565b73ffffffffffffffffffffffffffffffffffffffff16141515611c9057600080fd5b60006002600083815260200190815260200160002060006101000a81548173ffffffffffffffffffffffffffffffffffffffff021916908373ffffffffffffffffffffffffffffffffffffffff16021790555060008273ffffffffffffffffffffffffffffffffffffffff167f8c5be1e5ebec7d5bd14f71427d1e84f3dd0314c0f7b2291e5b200ac8c7c3b925836040518082815260200191505060405180910390a35050565b60008060008473ffffffffffffffffffffffffffffffffffffffff16611d5c85610f7e565b73ffffffffffffffffffffffffffffffffffffffff16141515611d7e57600080fd5b60046000858152602001908152602001600020549250611db06001611da2876112f9565b611fdd90919063ffffffff16565b9150600360008673ffffffffffffffffffffffffffffffffffffffff1673ffffffffffffffffffffffffffffffffffffffff16815260200190815260200160002082815481101515611dfe57fe5b906000526020600020900154905060006001600086815260200190815260200160002060006101000a81548173ffffffffffffffffffffffffffffffffffffffff021916908373ffffffffffffffffffffffffffffffffffffffff16021790555080600360008773ffffffffffffffffffffffffffffffffffffffff1673ffffffffffffffffffffffffffffffffffffffff16815260200190815260200160002084815481101515611eac57fe5b9060005260206000209001819055506000600360008773ffffffffffffffffffffffffffffffffffffffff1673ffffffffffffffffffffffffffffffffffffffff16815260200190815260200160002083815481101515611f0957fe5b906000526020600020900181905550600360008673ffffffffffffffffffffffffffffffffffffffff1673ffffffffffffffffffffffffffffffffffffffff168152602001908152602001600020805480919060019003611f6a91906120cd565b5060006004600086815260200190815260200160002081905550826004600083815260200190815260200160002081905550611fb26001600054611fdd90919063ffffffff16565b6000819055505050505050565b6000808284019050838110151515611fd357fe5b8091505092915050565b6000828211151515611feb57fe5b818303905092915050565b602060405190810160405280600081525090565b610100604051908101604052806000801916815260200160008152602001600080191681526020016000600281111561203f57fe5b8152602001600081526020016000600281111561205857fe5b815260200160008019168152602001600081525090565b81548183558181151161209c5760080281600802836000526020600020918201910161209b91906120f9565b5b505050565b8154818355818115116120c8578183600052602060002091820191016120c79190612170565b5b505050565b8154818355818115116120f4578183600052602060002091820191016120f39190612170565b5b505050565b61216d91905b8082111561216957600080820160009055600182016000905560028201600090556003820160006101000a81549060ff021916905560048201600090556005820160006101000a81549060ff021916905560068201600090556007820160009055506008016120ff565b5090565b90565b61219291905b8082111561218e576000816000905550600101612176565b5090565b905600a165627a7a723058202161dda6d8502d67db659fb573fd3fb1e89e119be49375fc5a6a2931d0201f1b0029",
  "source": "pragma solidity 0.4.19;\n\nimport {ERC721Token} from \"zeppelin-solidity/contracts/token/ERC721/ERC721Token.sol\";\nimport {Pausable} from \"zeppelin-solidity/contracts/lifecycle/Pausable.sol\";\nimport {Retailers} from \"./Retailers.sol\";\nimport {ECTools} from \"./ECTools.sol\";\n\n/**\n * Manage the creation and storage of tickets.\n */\ncontract TicketWallet is ERC721Token, Pausable {\n\n  string public constant name = \"Ticket Wallet by Planar Network\";\n\n  /**\n   * Ticket lifecycle\n   */\n  enum TicketState {Paid, Fulfilled, Cancelled}\n\n  /**\n   * Methods of ticket fulfilment\n   */\n  enum FulfilmentMethod {eTicket, SelfPrint, ToD}\n\n  /**\n   * Ensure the given message sender is the owner or retailer of the token\n   */\n  modifier onlyRetailerOrOwnerOf(uint256 _ticketId) {\n    require(getAddressByRetailerId(tickets[_ticketId].retailerId) == msg.sender || ownerOf(_ticketId) == msg.sender);\n    _;\n  }\n\n  /**\n   * Ensure the given message sender is the retailer of the token\n   */\n  modifier onlyRetailerOf(uint256 _ticketId) {\n    require(getAddressByRetailerId(tickets[_ticketId].retailerId) == msg.sender);\n    _;\n  }\n\n  /**\n   * Ticket information\n   */\n  struct Ticket {\n    bytes32 description;\n    uint price;\n    bytes32 payloadUrl;\n    TicketState state;\n    uint created;\n    FulfilmentMethod fulfilmentMethod;\n    bytes32 fulfilmentUrl;\n    uint retailerId;\n  }\n\n  /**\n   * Ticket storage\n   */\n  Ticket[] public tickets;\n\n  /**\n   * Retailers contract address\n   */\n  address public retailers;\n\n  /**\n   * Store a reference to the ERC-721 index of authorised retailers\n   */\n  function TicketWallet(address _retailers) public {\n    retailers = _retailers;\n  }\n\n  /**\n   * Add a ticket to the contract. \n   *\n   * This function will ensure the price, expiry time and payload were created by an authorised retailer, create the\n   * ticket and store it in the contract storage.\n   */\n  function createTicket(\n    bytes32 _description,\n    uint _expiry,\n    uint _price,\n    uint _retailerId,\n    string _signature,\n    bytes32 _payloadUrl,\n    FulfilmentMethod _fulfilmentMethod\n  ) \n    public \n    payable \n    returns (uint) \n  {\n    require(\n      ECTools.isSignedBy(\n        keccak256(_payloadUrl, _price, _expiry), \n        _signature, \n        getAddressByRetailerId(_retailerId)\n      )\n    );\n    // solium-disable-next-line security/no-block-members\n    require(_expiry < now);\n    uint fullPrice = _price + getTxFeeAmountByRetailerId(_retailerId);\n    require(msg.value == fullPrice);\n\n    // solium-disable security/no-block-members\n    Ticket memory _ticket = Ticket({\n      description: _description,\n      price: fullPrice,\n      payloadUrl: _payloadUrl,\n      state: TicketState.Paid,\n      fulfilmentMethod: _fulfilmentMethod,\n      fulfilmentUrl: 0,\n      created: now,\n      retailerId: _retailerId\n    });\n\n    uint256 ticketId = tickets.push(_ticket) - 1;\n\n    _mint(msg.sender, ticketId);\n\n    return ticketId;\n  }\n\n  /**\n   * Fulfil the ticket and attach the fulfilment URL\n   */\n  function fulfilTicket(uint256 _ticketId, bytes32 _fulfilmentUrl) public onlyRetailerOf(_ticketId) {\n    tickets[_ticketId].state = TicketState.Fulfilled;\n    tickets[_ticketId].fulfilmentUrl = _fulfilmentUrl;\n  }\n\n  /**\n   * Get Retailer's address by retailerId\n   */\n  function getAddressByRetailerId(uint _retailerId) public constant returns (address) {\n    return Retailers(retailers).ownerOf(_retailerId);\n  }\n\n  /**\n   * Get Retailer's transaction fee amount by retailerId\n   */\n  function getTxFeeAmountByRetailerId(uint _retailerId) public constant returns (uint) {\n    return Retailers(retailers).txFeeAmountById(_retailerId);\n  }\n\n  /**\n   * Set new address of Retailers contract\n   */\n  function setRetailerAddress(address _newRetailers) public onlyOwner {\n    retailers = _newRetailers;\n  }\n\n  /**\n   * Return the description of the ticket \n   */\n  function getTicketDescriptionById(uint256 _ticketId) public onlyRetailerOrOwnerOf(_ticketId) constant returns (bytes32) {\n    return tickets[_ticketId].description;\n  }\n\n  /**\n   * Return the URL of the full ticket details\n   */\n  function getTicketPayloadUrlById(uint256 _ticketId) public onlyRetailerOrOwnerOf(_ticketId) constant returns (bytes32) {\n    return tickets[_ticketId].payloadUrl;\n  }\n  \n  /**\n   * Return the URL containing the fulfilment information\n   */\n  function getFulfilmentUrlById(uint256 _ticketId) public onlyRetailerOrOwnerOf(_ticketId) constant returns (bytes32) {\n    require(tickets[_ticketId].state == TicketState.Fulfilled);\n\n    return tickets[_ticketId].fulfilmentUrl;\n  }\n}\n",
  "sourcePath": "/Users/marek/Documents/blockchain/planar/wallet/contracts/TicketWallet.sol",
  "compiler": {
    "name": "solc",
    "version": "0.4.19+commit.c4cbbb05.Emscripten.clang"
  },
  "schemaVersion": "1.0.1",
  "updatedAt": "2018-02-24T08:29:05.529Z"
}